{"jsonrpc":"2.0","id":1,"result":{"author":"0xf8b483dba2c3b7176a3da549ad41a48bb3121069","difficulty":"0xb6cb9824e57","extraData":"0xd983010302844765746887676f312e342e328777696e646f7773","gasLimit":"0x2fefd8","gasUsed":"0x3d860","hash":"0xd33c9dde9fff0ebaa6e71e8b26d2bda15ccf111c7af1b633698ac847667f0fb4","logsBloom":"0x00000000000000000000000000000000000000000000000000000000000000000000000000000000000000000000000000000000000000000000000000000000000000000000000000000000000000000000000000000000000000000000000000000000000000000000000000000000000000000000000000000000000000000000000000000000000000000000000000000000000000000000000000000000000000000000000000000000000000000000000000000000000000000000000000000000000000000000000000000000000000000000000000000000000000000000000000000000000000000000000000000000000000000000000000000000","miner":"0xf8b483dba2c3b7176a3da549ad41a48bb3121069","mixHash":"0xcaf27314d80cb3e888d32646402d617d8f8379ca23a6b0255e974e407ffdd846","nonce":"0xbc7609306a77d0a2","number":"0xf423e","parentHash":"0xc6fd988b2d086a7b6eee3d25bad453830391014ba268cf6cc5d139741cb51273","receiptsRoot":"0xb0310e47b0cc7d3bb24c65ec21ec0ddf8dcf1672bc9866d6ba67e83d33215568","sealFields":["0xcaf27314d80cb3e888d32646402d617d8f8379ca23a6b0255e974e407ffdd846","0xbc7609306a77d0a2"],"sha3Uncles":"0x1dcc4de8dec75d7aab85b567b6ccd41ad312451b948a7413f0a142fd40d49347","size":"0x764","stateRoot":"0xee8306f6cebba17153516cb6586de61d6294b49bc5534eb9378acb848907b277","timestamp":"0x56bfb3ed","totalDifficulty":"0x63053e0134c03db1","transactions":[{"blockHash":"0xd33c9dde9fff0ebaa6e71e8b26d2bda15ccf111c7af1b633698ac847667f0fb4","blockNumber":"0xf423e","condition":null,"creates":null,"from":"0x6b5da959786d801c1bedda58f8a071a40f992f03","gas":"0x5208","gasPrice":"0xdf8475800","hash":"0x679c178c832194d3f40afbda60421e8cb12f2c6b879a925d2e60b15a2b4d212e","input":"0x","networkId":null,"nonce":"0x111","publicKey":"0x1acb54447b8e66222a23fe267f75e9c7ff46538e5c7b286ee14bcf7ec587f9656c5eb2163e6e3d7dbffd677de22e50d7e067dff34de403d14f5ead2eaf8368a5","r":"0xd5ad60765e2006490e73bf06f4bc9b382b2ea434eb066b60bc4f577cb056603a","raw":"0xf86e820111850df84758008252089432be343b94f860124dc4fee278fdcbd38c102d88880f64f66ddf683000801ca0d5ad60765e2006490e73bf06f4bc9b382b2ea434eb066b60bc4f577cb056603aa00e8d699411b71b08f550a278b05fb1d36174509758ad7370528ae06cb1965a8f","s":"0xe8d699411b71b08f550a278b05fb1d36174509758ad7370528ae06cb1965a8f","standardV":"0x1","to":"0x32be343b94f860124dc4fee278fdcbd38c102d88","transactionIndex":"0x0","v":"0x1c","value":"0xf64f66ddf683000"},{"blockHash":"0xd33c9dde9fff0ebaa6e71e8b26d2bda15ccf111c7af1b633698ac847667f0fb4","blockNumber":"0xf423e","condition":null,"creates":null,"from":"0x9da7521d2b2281b3cd477b553a5dc18b58674f07","gas":"0x5208","gasPrice":"0xdf8475800","hash":"0xfe3189ab9a3c3aaa97a08e9410b6569f7528e38a4c86077ea20ddf33bd2c7ea5","input":"0x","networkId":null,"nonce":"0x79","publicKey":"0xa150bdb9419cf198e7430552880e8b050a09952ae53d1fd82d70941c6be318f21b98dcf93a974b763948c1621e460ec8cead12080fc2759c2e3e4dc884d2308b","r":"0xb31d8d88bfcf7a3dd705bc78a078c75542ca1a993860a3c95b2af317ee3a4b0d","raw":"0xf86c79850df84758008252089432be343b94f860124dc4fee278fdcbd38c102d88880ef726f7729a1000801ca0b31d8d88bfcf7a3dd705bc78a078c75542ca1a993860a3c95b2af317ee3a4b0da076d529630cef5d1acf0d649faf281ebcb13768effce3eb02a96f5228ad2f5333","s":"0x76d529630cef5d1acf0d649faf281ebcb13768effce3eb02a96f5228ad2f5333","standardV":"0x1","to":"0x32be343b94f860124dc4fee278fdcbd38c102d88","transactionIndex":"0x1","v":"0x1c","value":"0xef726f7729a1000"},{"blockHash":"0xd33c9dde9fff0ebaa6e71e8b26d2bda15ccf111c7af1b633698ac847667f0fb4","blockNumber":"0xf423e","condition":null,"creates":null,"from":"0x707868ea3bfb73007106cfd30f678fdb94d12173","gas":"0x5208","gasPrice":"0xdf8475800","hash":"0xcb7508e8703535fbc801146fa3c7d04798d71a9a0e3bb97a0a14beb733559672","input":"0x","networkId":null,"nonce":"0x251","publicKey":"0x030ad57f373be3cd858bb949365b1438b4383b94fa1b95af0ab5337719539fded4494868e0a82e6df40cddeb9415d8e45a6506ea77c1909c71dd2ec37316da0a","r":"0xbfc3a164f96f95f04ec50af58645d5cf51eaa2473872af9bf23ceab22560e8d6","raw":"0xf86e820251850df84758008252089432be343b94f860124dc4fee278fdcbd38c102d88881fc1efd41e37c800801ba0bfc3a164f96f95f04ec50af58645d5cf51eaa2473872af9bf23ceab22560e8d6a053f43d489fd83f8e2c9acbf2d14695c63838c18f420021771f111750aac8efba","s":"0x53f43d489fd83f8e2c9acbf2d14695c63838c18f420021771f111750aac8efba","standardV":"0x0","to":"0x32be343b94f860124dc4fee278fdcbd38c102d88","transactionIndex":"0x2","v":"0x1b","value":"0x1fc1efd41e37c800"},{"blockHash":"0xd33c9dde9fff0ebaa6e71e8b26d2bda15ccf111c7af1b633698ac847667f0fb4","blockNumber":"0xf423e","condition":null,"creates":null,"from":"0xd614cc8e7d44e6e5d48b9b3efd5ffec36098f403","gas":"0x5208","gasPrice":"0xdf8475800","hash":"0xf333f42badd731da2869ce92d95a255f75ac2a16ed043e6b343ed91d4fdbb579","input":"0x","networkId":null,"nonce":"0x18c","publicKey":"0x34ff9f742cb0c7feaf8109a722d4518fd504abedc4f66e4e6bf8ece0726841c132e5660bbabe5dbe83414cda8ddb5b0aae4a649661747a817cfb79045c22d419","r":"0x32a184bbbe6168a2ebfba1be61d3535d45ce580b130eed8df8f5024be97f5bf8","raw":"0xf86e82018c850df84758008252089432be343b94f860124dc4fee278fdcbd38c102d88880eeee41c060f2400801ca032a184bbbe6168a2ebfba1be61d3535d45ce580b130eed8df8f5024be97f5bf8a071c020aef32840e0f4f5ea2b095faa4602586a471d33c62563146314c4970a93","s":"0x71c020aef32840e0f4f5ea2b095faa4602586a471d33c62563146314c4970a93","standardV":"0x1","to":"0x32be343b94f860124dc4fee278fdcbd38c102d88","transactionIndex":"0x3","v":"0x1c","value":"0xeeee41c060f2400"},{"blockHash":"0xd33c9dde9fff0ebaa6e71e8b26d2bda15ccf111c7af1b633698ac847667f0fb4","blockNumber":"0xf423e","condition":null,"creates":null,"from":"0x078838304c9ee678209ea0959587da9b6f31ebff","gas":"0x5208","gasPrice":"0xdf8475800","hash":"0xfa50db902c56466492e9f32fd543edaa1554a47b2e288175c262685df0537106","input":"0x","networkId":null,"nonce":"0xf46","publicKey":"0x866ede0bed987e0e8736cc94244640df1124b5b789b780bc012b936c2559cc630102e32c1c454f92626542eca44802f3ee44437a031fa1eaabcbdf323891eb93","r":"0x9a569d066c62c64ec8b93c6d268499a276fe882289f6090e65748911ec81b256","raw":"0xf86e820f46850df84758008252089432be343b94f860124dc4fee278fdcbd38c102d88880e62a83e59ffa400801ca09a569d066c62c64ec8b93c6d268499a276fe882289f6090e65748911ec81b256a01e7b9216b86d6a5517b88a2aaef666732c51486214948fdecd89b9043a30750c","s":"0x1e7b9216b86d6a5517b88a2aaef666732c51486214948fdecd89b9043a30750c","standardV":"0x1","to":"0x32be343b94f860124dc4fee278fdcbd38c102d88","transactionIndex":"0x4","v":"0x1c","value":"0xe62a83e59ffa400"},{"blockHash":"0xd33c9dde9fff0ebaa6e71e8b26d2bda15ccf111c7af1b633698ac847667f0fb4","blockNumber":"0xf423e","condition":null,"creates":null,"from":"0x460825a3542f4823818184020ba3861da1e26872","gas":"0x5208","gasPrice":"0xdf8475800","hash":"0x0b4a6c8459c02f647d8a5c667e292de3e45c5f03558a0e814377e5356ebc6234","input":"0x","networkId":null,"nonce":"0x113","publicKey":"0xee1a6b3dc03e8b5329d99b77c33f64767196ce47236b4c9ee2baa87827a6348488926ae6da54abbf788f5d2602dff65984a60020407e7e8b2da160f32e80a344","r":"0x87842eacb46cc63064a8a8f0932ce3f18c0d27f81a8124d2c3a9f751293b11d0","raw":"0xf86e820113850df84758008252089432be343b94f860124dc4fee278fdcbd38c102d88880efd50e050f64400801ca087842eacb46cc63064a8a8f0932ce3f18c0d27f81a8124d2c3a9f751293b11d0a04e7678e22ce8ec60a04c36fa5685421a3bf8b9d0ff68280a8f31d6db49629afe","s":"0x4e7678e22ce8ec60a04c36fa5685421a3bf8b9d0ff68280a8f31d6db49629afe","standardV":"0x1","to":"0x32be343b94f860124dc4fee278fdcbd38c102d88","transactionIndex":"0x5","v":"0x1c","value":"0xefd50e050f64400"},{"blockHash":"0xd33c9dde9fff0ebaa6e71e8b26d2bda15ccf111c7af1b633698ac847667f0fb4","blockNumber":"0xf423e","condition":null,"creates":null,"from":"0xa29862fb7f9b37374d0c9062ab52bdd74d1af867","gas":"0x5208","gasPrice":"0xdf8475800","hash":"0xc4ea04477167cc599788100bef3306eca140549e747ba531db579eb2a72b1b11","input":"0x","networkId":null,"nonce":"0x59a","publicKey":"0xa3e333b30947a5a685b47b387a92f65a7c5d7b61f6f3016777f720e83fea9fbe5faf6fcb3296e0cd9da6ec9acf30920d5d67c2c4636a79f940b6e2fbe46c14a7","r":"0x90ddc9473c323eebd5c4a35251cd437e62563c883e8e87b141389fde111c5b24","raw":"0xf86e82059a850df84758008252089432be343b94f860124dc4fee278fdcbd38c102d88880f32a22e7fc0f800801ca090ddc9473c323eebd5c4a35251cd437e62563c883e8e87b141389fde111c5b24a039a1dfc3e2b85c74fce62ed7369ac1a62de13b31f4fb47e5fb02232aeefd83f4","s":"0x39a1dfc3e2b85c74fce62ed7369ac1a62de13b31f4fb47e5fb02232aeefd83f4","standardV":"0x1","to":"0x32be343b94f860124dc4fee278fdcbd38c102d88","transactionIndex":"0x6","v":"0x1c","value":"0xf32a22e7fc0f800"},{"blockHash":"0xd33c9dde9fff0ebaa6e71e8b26d2bda15ccf111c7af1b633698ac847667f0fb4","blockNumber":"0xf423e","condition":null,"creates":null,"from":"0x771dd02681c793eb34eff34528309e3657f843fb","gas":"0x5208","gasPrice":"0xdf8475800","hash":"0xf73f661edcb6e8fc0b48a5bb5292e8b5db8ea911e4664ed1f8af1b2e66f6f585","input":"0x","networkId":null,"nonce":"0x211","publicKey":"0xca6db6e9182a094b5cbfa68741ab7c31450582eb65f1c558798a08b230de63a2f25deedc62d276a5f3eef3526282e28c7efdbbcba8e3ed4dad086c2201f10855","r":"0x7ecfd78b2838d73283f6de62bee1a046830fac75fb5b85ede279dbac097feec6","raw":"0xf86e820211850df84758008252089432be343b94f860124dc4fee278fdcbd38c102d888811a2bd08b7075400801ba07ecfd78b2838d73283f6de62bee1a046830fac75fb5b85ede279dbac097feec6a01cfc1ced8140efc2dc71e217d6693665942ef1424affd7d61c134ed462605922","s":"0x1cfc1ced8140efc2dc71e217d6693665942ef1424affd7d61c134ed462605922","standardV":"0x0","to":"0x32be343b94f860124dc4fee278fdcbd38c102d88","transactionIndex":"0x7","v":"0x1b","value":"0x11a2bd08b7075400"},{"blockHash":"0xd33c9dde9fff0ebaa6e71e8b26d2bda15ccf111c7af1b633698ac847667f0fb4","blockNumber":"0xf423e","condition":null,"creates":null,"from":"0xfbe56e8afb28e097a871b2747800079ad5c29c03","gas":"0x5208","gasPrice":"0xdf8475800","hash":"0x9b2569e1b26d29730cf262756a6033834e34345f4a18caa241117747ce8cf746","input":"0x","networkId":null,"nonce":"0x6c","publicKey":"0x7c2ee029ec45aa73444091d1a0c3f830bb7f91797b30a1f53c11a2fbec10f7bb7706a9569350da382cc623c2b65d03b480ae96bc168021da4f0df60146f9e16c","r":"0xb1f3b2754a9189b376bc32d03a1097d4fe0cfaae3e55e45a4249127b9b541399","raw":"0xf86c6c850df84758008252089432be343b94f860124dc4fee278fdcbd38c102d88880f94ad612cf85000801ca0b1f3b2754a9189b376bc32d03a1097d4fe0cfaae3e55e45a4249127b9b541399a025b51f84e621e9193dfb7172dfdea0379bbf8d5d73e25de0e2d0dc50f657e249","s":"0x25b51f84e621e9193dfb7172dfdea0379bbf8d5d73e25de0e2d0dc50f657e249","standardV":"0x1","to":"0x32be343b94f860124dc4fee278fdcbd38c102d88","transactionIndex":"0x8","v":"0x1c","value":"0xf94ad612cf85000"},{"blockHash":"0xd33c9dde9fff0ebaa6e71e8b26d2bda15ccf111c7af1b633698ac847667f0fb4","blockNumber":"0xf423e","condition":null,"creates":null,"from":"0xe6ea7febb65f6fb46dc42dea2f873c67aadb1f72","gas":"0x5208","gasPrice":"0xdf8475800","hash":"0x5ac04be22ee89dce8c33f334a41ab05e1cbeca16669003c5ffe2c220f772b097","input":"0x","networkId":null,"nonce":"0x170","publicKey":"0xa6238a7419a3321706c6612d7cc647bce4568ec6ce4a999d081077feac54ec8d1e2627484782a15a4a2c2eca0a71bee25b5a82a7ca74c84b75f89ec2f8bbb5ea","r":"0x3c26e80876f0901d3007a8798f9792d426b6f78079dcd06d91019677850b9356","raw":"0xf86e820170850df84758008252089432be343b94f860124dc4fee278fdcbd38c102d8888115740dac6be2400801ca03c26e80876f0901d3007a8798f9792d426b6f78079dcd06d91019677850b9356a028a644324a777b7beade6b8432d6f95f85112863e08c50bd3e22d1594244014c","s":"0x28a644324a777b7beade6b8432d6f95f85112863e08c50bd3e22d1594244014c","standardV":"0x1","to":"0x32be343b94f860124dc4fee278fdcbd38c102d88","transactionIndex":"0x9","v":"0x1c","value":"0x115740dac6be2400"},{"blockHash":"0xd33c9dde9fff0ebaa6e71e8b26d2bda15ccf111c7af1b633698ac847667f0fb4","blockNumber":"0xf423e","condition":null,"creates":null,"from":"0x2a65aca4d5fc5b5c859090a6c34d164135398226","gas":"0x15f90","gasPrice":"0xba43b7400","hash":"0x46a83d066750df27119aa3e314641fb3b3ec6e1afc1e768d3da4ac941a6a0a8d","input":"0x","networkId":null,"nonce":"0x2a11d","publicKey":"0x4c3eb5e19c71d8245eaaaba21ef8f94a70e9250848d10ade086f893a7a33a06d7063590e9e6ca88f918d7704840d903298fe802b6047fa7f6d09603eba690c39","r":"0x85bada12a37f21016e8801d6136cd7793192346a0f29f4fd37782d774378a7df","raw":"0xf8708302a11d850ba43b740083015f90945d65e227f4e7bc798cf62526f4bdd47c82e6a590880eb35d6f4e620c00801ca085bada12a37f21016e8801d6136cd7793192346a0f29f4fd37782d774378a7dfa07e1c78a62e1c16b955dc1b56f657c51fe2dfb739c2c1d11fe4845583706719a8","s":"0x7e1c78a62e1c16b955dc1b56f657c51fe2dfb739c2c1d11fe4845583706719a8","standardV":"0x1","to":"0x5d65e227f4e7bc798cf62526f4bdd47c82e6a590","transactionIndex":"0xa","v":"0x1c","value":"0xeb35d6f4e620c00"},{"blockHash":"0xd33c9dde9fff0ebaa6e71e8b26d2bda15ccf111c7af1b633698ac847667f0fb4","blockNumber":"0xf423e","condition":null,"creates":null,"from":"0x2a65aca4d5fc5b5c859090a6c34d164135398226","gas":"0x15f90","gasPrice":"0xba43b7400","hash":"0x15dd5bba84901824fb3aa75618a92b7cbacb454c53eaa962a2ca8667acb06a78","input":"0x","networkId":null,"nonce":"0x2a11e","publicKey":"0x4c3eb5e19c71d8245eaaaba21ef8f94a70e9250848d10ade086f893a7a33a06d7063590e9e6ca88f918d7704840d903298fe802b6047fa7f6d09603eba690c39","r":"0x1611395215c0ede475af6fd3b647c674d18735851060ccad0e0e7a7c150831c9","raw":"0xf8708302a11e850ba43b740083015f909436fab08874deb6cd0e7f916ddee8957630073d47880eb1fbb47be3f800801ca01611395215c0ede475af6fd3b647c674d18735851060ccad0e0e7a7c150831c9a0333716a13f040cbd8ac43462b9cfa8d602d4a3413825d283705bc3d4b22af8de","s":"0x333716a13f040cbd8ac43462b9cfa8d602d4a3413825d283705bc3d4b22af8de","standardV":"0x1","to":"0x36fab08874deb6cd0e7f916ddee8957630073d47","transactionIndex":"0xb","v":"0x1c","value":"0xeb1fbb47be3f800"}],"transactionsRoot":"0x6414d72a4c223bce7d1309869332b148670eb66af4e3b3ba6d1a55aa0bb3fd4f","uncles":[]}}