{"jsonrpc":"2.0","result":{"author":"0x52bc44d5378309ee2abf1539bf71de1b7d7be3b5","difficulty":"0xb6b4beb1e8e","extraData":"0xd783010303844765746887676f312e342e32856c696e7578","gasLimit":"0x2fefd8","gasUsed":"0x38658","hash":"0xb4fbadf8ea452b139718e2700dc1135cfc81145031c84b7ab27cd710394f7b38","logsBloom":"0x00000000000000000000000000000000000000000000000000000000000000000000000000000000000000000000000000000000000000000000000000000000000000000000000000000000000000000000000000000000000000000000000000000000000000000000000000000000000000000000000000000000000000000000000000000000000000000000000000000000000000000000000000000000000000000000000000000000000000000000000000000000000000000000000000000000000000000000000000000000000000000000000000000000000000000000000000000000000000000000000000000000000000000000000000000000","miner":"0x52bc44d5378309ee2abf1539bf71de1b7d7be3b5","mixHash":"0x5b10f4a08a6c209d426f6158bd24b574f4f7b7aa0099c67c14a1f693b4dd04d0","nonce":"0xf491f46b60fe04b3","number":"0xf423f","parentHash":"0xd33c9dde9fff0ebaa6e71e8b26d2bda15ccf111c7af1b633698ac847667f0fb4","receiptsRoot":"0x7fa0f6ca2a01823208d80801edad37e3e3a003b55c89319b45eb1f97862ad229","sealFields":["0xa05b10f4a08a6c209d426f6158bd24b574f4f7b7aa0099c67c14a1f693b4dd04d0","0x88f491f46b60fe04b3"],"sha3Uncles":"0x1dcc4de8dec75d7aab85b567b6ccd41ad312451b948a7413f0a142fd40d49347","size":"0x6e8","stateRoot":"0xed98aa4b5b19c82fb35364f08508ae0a6dec665fa57663dca94c5d70554cde10","timestamp":"0x56bfb405","totalDifficulty":"0x6305496c80ab5c3f","transactions":[{"blockHash":"0xb4fbadf8ea452b139718e2700dc1135cfc81145031c84b7ab27cd710394f7b38","blockNumber":"0xf423f","condition":null,"creates":null,"from":"0xc3665b8a9224ba8da9a20322f31d599cafa52c5c","gas":"0x5208","gasPrice":"0xdf8475800","hash":"0x22879e0bc9602fef59dc0602f9bc385f12632da5cb4eee4b813a0c27159c4d24","input":"0x","networkId":null,"nonce":"0x1d3","publicKey":"0xc3dbee74f1b2b8dbedc417244b7f5a134c6f7769faf9ffe784b3f0fdda7ca52cf914d3f2b3164c009bf939796b77f047ccb4cc113d3bde5b06555b781e0c7149","r":"0x43531017f1569ec692c0bf1ad710ddb5158b60505ea33fb7a21245738539e2d5","raw":"0xf86e8201d3850df84758008252089432be343b94f860124dc4fee278fdcbd38c102d8888102363ac310a4000801ca043531017f1569ec692c0bf1ad710ddb5158b60505ea33fb7a21245738539e2d5a03856c6a1117ff71e9b769ccb6960674038a3326c3dd84c152fc83ada28145a07","s":"0x3856c6a1117ff71e9b769ccb6960674038a3326c3dd84c152fc83ada28145a07","standardV":"0x1","to":"0x32be343b94f860124dc4fee278fdcbd38c102d88","transactionIndex":"0x0","v":"0x1c","value":"0x102363ac310a4000"},{"blockHash":"0xb4fbadf8ea452b139718e2700dc1135cfc81145031c84b7ab27cd710394f7b38","blockNumber":"0xf423f","condition":null,"creates":null,"from":"0x4ce758b0c8aa655b77c14f16bd0190b5715be75a","gas":"0x5208","gasPrice":"0xdf8475800","hash":"0x3c634bf5f09f6b5b5ea377df7abb483f422ae5d4ba389c395f14f833de25d362","input":"0x","networkId":null,"nonce":"0x9","publicKey":"0x75022ee25c702fc6a53853843e00e87877e737f9c631a9d831c11693d7e31877a1b09755ab3a5c112decf57339839364b8b9a3c23ada01761b1e3a044e297316","r":"0x8219a4f30cb8dd7d5e1163ac433f207b599d804b0d74ee54c8694014db647700","raw":"0xf86c09850df84758008252089432be343b94f860124dc4fee278fdcbd38c102d88880ed350879ce50000801ba08219a4f30cb8dd7d5e1163ac433f207b599d804b0d74ee54c8694014db647700a03db2e806986a746d44d675fdbbd7594bb2856946ba257209abfffdd1628141af","s":"0x3db2e806986a746d44d675fdbbd7594bb2856946ba257209abfffdd1628141af","standardV":"0x0","to":"0x32be343b94f860124dc4fee278fdcbd38c102d88","transactionIndex":"0x1","v":"0x1b","value":"0xed350879ce50000"},{"blockHash":"0xb4fbadf8ea452b139718e2700dc1135cfc81145031c84b7ab27cd710394f7b38","blockNumber":"0xf423f","condition":null,"creates":null,"from":"0x30906581413d556de1a018adbe6cc63c88d58512","gas":"0x5208","gasPrice":"0xdf8475800","hash":"0x59feccaad599e776cd6635e68b5e19254cca3b38e49437044f1e1d15d00b0576","input":"0x","networkId":null,"nonce":"0x59","publicKey":"0xccf6be26c1eb1c89d5fe958db0112a46e3ac23a95ac0f709ce84a49ae3f20bcf143909bfe67f685caaf362066e1c7e224899f57678bbcecb7a720175bcbb387d","r":"0x1ca26859a6eed116312010359c2e8351d126f31b078a0e2e19aae0acc98d9488","raw":"0xf86c59850df84758008252089432be343b94f860124dc4fee278fdcbd38c102d88882b0ca8b9f5f02000801ba01ca26859a6eed116312010359c2e8351d126f31b078a0e2e19aae0acc98d9488a0172c1a299737440a9063af6547d567ca7d269bfc2a9e81ec1de21aa8bd8e17b1","s":"0x172c1a299737440a9063af6547d567ca7d269bfc2a9e81ec1de21aa8bd8e17b1","standardV":"0x0","to":"0x32be343b94f860124dc4fee278fdcbd38c102d88","transactionIndex":"0x2","v":"0x1b","value":"0x2b0ca8b9f5f02000"},{"blockHash":"0xb4fbadf8ea452b139718e2700dc1135cfc81145031c84b7ab27cd710394f7b38","blockNumber":"0xf423f","condition":null,"creates":null,"from":"0x8bec4e6fb1a28820eb1e8ec2d4eae4842ed2f923","gas":"0x5208","gasPrice":"0xdf8475800","hash":"0x98a03afa804e248ada5f26e9118ae927d4d3cb60e78c54938dced1cf25ee3567","input":"0x","networkId":null,"nonce":"0x2","publicKey":"0xbc8c89a85804c7859069c13561dbbd8d1d4739ec7d18514c42b3ffea64529cee522a5e20d93373d0074e94c4c7b6eba51c7d2f18ef7c64c37520342acb233795","r":"0xa5aca100a264a8da4a58bef77c5116a6dde42186ac249623c0edcb30189640a","raw":"0xf86c02850df84758008252089432be343b94f860124dc4fee278fdcbd38c102d88880fd037ba87693800801ba00a5aca100a264a8da4a58bef77c5116a6dde42186ac249623c0edcb30189640aa0783e9439755023b919897574f94337aaac4a1ddc20217e3ac264a7edf813ffdd","s":"0x783e9439755023b919897574f94337aaac4a1ddc20217e3ac264a7edf813ffdd","standardV":"0x0","to":"0x32be343b94f860124dc4fee278fdcbd38c102d88","transactionIndex":"0x3","v":"0x1b","value":"0xfd037ba87693800"},{"blockHash":"0xb4fbadf8ea452b139718e2700dc1135cfc81145031c84b7ab27cd710394f7b38","blockNumber":"0xf423f","condition":null,"creates":null,"from":"0x4835a9626b02369546502d2949e16b0fda110b0c","gas":"0x5208","gasPrice":"0xdf8475800","hash":"0x18f1e6430334ad548bc36fc317016bc9f7a076d1fa50a89fe4e1d095ed3f9562","input":"0x","networkId":null,"nonce":"0xd9","publicKey":"0x91b3b4fe89d112cfc7308619e8aa7de86f14af3f6b6e4e92becb6e29e98207835bbe1a69109c16b14b0eb7285d2b952a9cde6007932afe95e81eefc183f75314","r":"0xb93c6f8dce800a1ec57d70813c4d35e3ffe25a6f1ae9057cf706636cf34d662","raw":"0xf86d81d9850df84758008252089432be343b94f860124dc4fee278fdcbd38c102d888814bac05c835a5400801ba00b93c6f8dce800a1ec57d70813c4d35e3ffe25a6f1ae9057cf706636cf34d662a06d254a5557b7716ef01dd28aa84cc919f397c0a778f3a109a1ee9df2fc530ec0","s":"0x6d254a5557b7716ef01dd28aa84cc919f397c0a778f3a109a1ee9df2fc530ec0","standardV":"0x0","to":"0x32be343b94f860124dc4fee278fdcbd38c102d88","transactionIndex":"0x4","v":"0x1b","value":"0x14bac05c835a5400"},{"blockHash":"0xb4fbadf8ea452b139718e2700dc1135cfc81145031c84b7ab27cd710394f7b38","blockNumber":"0xf423f","condition":null,"creates":null,"from":"0x9cc72ebf3daaf12c72e48605e1e67b47c95a1911","gas":"0x5208","gasPrice":"0xdf8475800","hash":"0xb1cada8daf63c45750df1ee79eed5a3cf6240e3cebdb6de3f26bc7cf03217bf4","input":"0x","networkId":null,"nonce":"0x34","publicKey":"0x90dff18c1c01d566e6d8bf0190e3e965f98e7f51ccbbe6040f9a9972e88f4ad19f1547406454fbc9e1ebcf4c5f2f1e2df9b9371028fe0a552ecca5f5f0aa4129","r":"0xe9a25c929c26d1a95232ba75aef419a91b470651eb77614695e16c5ba023e383","raw":"0xf86c34850df84758008252089432be343b94f860124dc4fee278fdcbd38c102d88880f258512af0d4000801ba0e9a25c929c26d1a95232ba75aef419a91b470651eb77614695e16c5ba023e383a0679fb2fc0d0b0f3549967c0894ee7d947f07d238a83ef745bc3ced5143a4af36","s":"0x679fb2fc0d0b0f3549967c0894ee7d947f07d238a83ef745bc3ced5143a4af36","standardV":"0x0","to":"0x32be343b94f860124dc4fee278fdcbd38c102d88","transactionIndex":"0x5","v":"0x1b","value":"0xf258512af0d4000"},{"blockHash":"0xb4fbadf8ea452b139718e2700dc1135cfc81145031c84b7ab27cd710394f7b38","blockNumber":"0xf423f","condition":null,"creates":null,"from":"0x5c51467399bc655f0cc6db88df15946717534633","gas":"0x5208","gasPrice":"0xdf8475800","hash":"0x4fa879b491e0779fc035758ec77b93c4e51d528d65b64eb055c015a58deff103","input":"0x","networkId":null,"nonce":"0x6f","publicKey":"0x0b7e2532afc2daa33763002525aa6c7edc25ea97d63baeeb2c6f5094f18dca4a0212b52061f9a9091aad5c4380a6506f9a51ddd2d014e78742bf144a58d6ffa0","r":"0x9e0b8360a36d6d0320aef19bd811431b1a692504549da9f05f9b4d9e329993b9","raw":"0xf86c6f850df84758008252089432be343b94f860124dc4fee278fdcbd38c102d88881c54e302456eb400801ca09e0b8360a36d6d0320aef19bd811431b1a692504549da9f05f9b4d9e329993b9a05acff70bd8cf82d9d70b11d4e59dc5d54937475ec394ec846263495f61e5e6ee","s":"0x5acff70bd8cf82d9d70b11d4e59dc5d54937475ec394ec846263495f61e5e6ee","standardV":"0x1","to":"0x32be343b94f860124dc4fee278fdcbd38c102d88","transactionIndex":"0x6","v":"0x1c","value":"0x1c54e302456eb400"},{"blockHash":"0xb4fbadf8ea452b139718e2700dc1135cfc81145031c84b7ab27cd710394f7b38","blockNumber":"0xf423f","condition":null,"creates":null,"from":"0x055d9d7ec193d1e062c6ec4fa80ef89b5c1258f4","gas":"0x5208","gasPrice":"0xdf8475800","hash":"0x1bea59827ab153b20cee79890d221a80fa6a04e552d667504c592ed314fb6d76","input":"0x","networkId":null,"nonce":"0x46","publicKey":"0xfae19a0ac08d36f0229663d45d0c41ca52c4e295c7af82a1b39515a79025175293400d026e0d41767aac42f8b7e4a6687c5762161457d753f1fc0766614868f9","r":"0xb2803f1bfa237bda762d214f71a4c71a7306f55df2880c77d746024e81ccbaa2","raw":"0xf86c46850df84758008252089432be343b94f860124dc4fee278fdcbd38c102d88880f0447b1edca4000801ca0b2803f1bfa237bda762d214f71a4c71a7306f55df2880c77d746024e81ccbaa2a07aeed35c0cbfbe0ed6552fd55b3f57fdc054eeabd02fc61bf66d9a8843aa593a","s":"0x7aeed35c0cbfbe0ed6552fd55b3f57fdc054eeabd02fc61bf66d9a8843aa593a","standardV":"0x1","to":"0x32be343b94f860124dc4fee278fdcbd38c102d88","transactionIndex":"0x7","v":"0x1c","value":"0xf0447b1edca4000"},{"blockHash":"0xb4fbadf8ea452b139718e2700dc1135cfc81145031c84b7ab27cd710394f7b38","blockNumber":"0xf423f","condition":null,"creates":null,"from":"0x8e68c0c9b5275fa684291304af9cafe6ceaf2772","gas":"0x15f90","gasPrice":"0xba43b7400","hash":"0x73e87db1108a2aa852f48e088ca1a2771f9b7c18af8d1bd77a3cdcc72a750c56","input":"0x","networkId":null,"nonce":"0x3","publicKey":"0xa5e423dfcbdbba1fdbb785367a88235fa2569061d72b6c715111ac21cbef8fc1db860acdef85f1408c760f34b28a4f07d950ac15c4b85d5e528e50f546a89b6d","r":"0x6dccb1349919662c40455aee04472ae307195580837510ecf2e6fc428876eb03","raw":"0xf86d03850ba43b740083015f909426016a2b5d872adc1b131a4cd9d4b18789d0d9eb88016345785d8a0000801ba06dccb1349919662c40455aee04472ae307195580837510ecf2e6fc428876eb03a03b84ea9c3c6462ac086a1d789a167c2735896a6b5a40e85a6e45da8884fe27de","s":"0x3b84ea9c3c6462ac086a1d789a167c2735896a6b5a40e85a6e45da8884fe27de","standardV":"0x0","to":"0x26016a2b5d872adc1b131a4cd9d4b18789d0d9eb","transactionIndex":"0x8","v":"0x1b","value":"0x16345785d8a0000"},{"blockHash":"0xb4fbadf8ea452b139718e2700dc1135cfc81145031c84b7ab27cd710394f7b38","blockNumber":"0xf423f","condition":null,"creates":null,"from":"0x2a65aca4d5fc5b5c859090a6c34d164135398226","gas":"0x15f90","gasPrice":"0xba43b7400","hash":"0x337a5e90b73f44ffebea73cb3d97738c524f63e1032b30735e43212cff731aee","input":"0x","networkId":null,"nonce":"0x2a11f","publicKey":"0x4c3eb5e19c71d8245eaaaba21ef8f94a70e9250848d10ade086f893a7a33a06d7063590e9e6ca88f918d7704840d903298fe802b6047fa7f6d09603eba690c39","r":"0xaa8909295ff178639df961126970f44b5d894326eb47cead161f6910799a98b8","raw":"0xf8708302a11f850ba43b740083015f90945275c3371ece4d4a5b1e14cf6dbfc2277d58ef92880e93ea6a35f2e000801ba0aa8909295ff178639df961126970f44b5d894326eb47cead161f6910799a98b8a0254d7742eccaf2f4c44bfe638378dcf42bdde9465f231b89003cc7927de5d46e","s":"0x254d7742eccaf2f4c44bfe638378dcf42bdde9465f231b89003cc7927de5d46e","standardV":"0x0","to":"0x5275c3371ece4d4a5b1e14cf6dbfc2277d58ef92","transactionIndex":"0x9","v":"0x1b","value":"0xe93ea6a35f2e000"},{"blockHash":"0xb4fbadf8ea452b139718e2700dc1135cfc81145031c84b7ab27cd710394f7b38","blockNumber":"0xf423f","condition":null,"creates":null,"from":"0x2a65aca4d5fc5b5c859090a6c34d164135398226","gas":"0x15f90","gasPrice":"0xba43b7400","hash":"0xc280ab030e20bc9ef72c87b420d58f598bda753ef80a53136a923848b0c89a5c","input":"0x","networkId":null,"nonce":"0x2a120","publicKey":"0x4c3eb5e19c71d8245eaaaba21ef8f94a70e9250848d10ade086f893a7a33a06d7063590e9e6ca88f918d7704840d903298fe802b6047fa7f6d09603eba690c39","r":"0xcfe3ad31d6612f8d787c45f115cc5b43fb22bcc210b62ae71dc7cbf0a6bea8df","raw":"0xf8708302a120850ba43b740083015f90941c51bf013add0857c5d9cf2f71a7f15ca93d4816880e917c4b10c87400801ca0cfe3ad31d6612f8d787c45f115cc5b43fb22bcc210b62ae71dc7cbf0a6bea8dfa057db8998114fae3c337e99dbd8573d4085691880f4576c6c1f6c5bbfe67d6cf0","s":"0x57db8998114fae3c337e99dbd8573d4085691880f4576c6c1f6c5bbfe67d6cf0","standardV":"0x1","to":"0x1c51bf013add0857c5d9cf2f71a7f15ca93d4816","transactionIndex":"0xa","v":"0x1c","value":"0xe917c4b10c87400"}],"transactionsRoot":"0x447cbd8c48f498a6912b10831cdff59c7fbfcbbe735ca92883d4fa06dcd7ae54","uncles":[]},"id":1}
