{"jsonrpc":"2.0","result":{"author":"0x4bb96091ee9d802ed039c4d1a5f6216f90f81b01","difficulty":"0xae22b2113ed","extraData":"0xd783010400844765746887676f312e352e31856c696e7578","gasLimit":"0x2fefd8","gasUsed":"0x5208","hash":"0x79851e1adb52a8c5490da2df5d8c060b1cc44a3b6eeaada2e20edba5a8e84523","logsBloom":"0x00000000000000000000000000000000000000000000000000000000000000000000000000000000000000000000000000000000000000000000000000000000000000000000000000000000000000000000000000000000000000000000000000000000000000000000000000000000000000000000000000000000000000000000000000000000000000000000000000000000000000000000000000000000000000000000000000000000000000000000000000000000000000000000000000000000000000000000000000000000000000000000000000000000000000000000000000000000000000000000000000000000000000000000000000000000","miner":"0x4bb96091ee9d802ed039c4d1a5f6216f90f81b01","mixHash":"0x2565992ba4dbd7ab3bb08d1da34051ae1d90c79bc637a21aa2f51f6380bf5f6a","nonce":"0xf7a14147c2320b2d","number":"0xf3892","parentHash":"0x8ad6d5cbe7ec75ed71d5153dd58f2fd413b17c398ad2a7d9309459ce884e6c9b","receiptsRoot":"0xa73a95d90de29c66220c8b8da825cf34ae969efc7f9a878d8ed893565e4b4676","sealFields":["0xa02565992ba4dbd7ab3bb08d1da34051ae1d90c79bc637a21aa2f51f6380bf5f6a","0x88f7a14147c2320b2d"],"sha3Uncles":"0x08793b633d0b21b980107f3e3277c6693f2f3739e0c676a238cbe24d9ae6e252","size":"0x6c0","stateRoot":"0x11e5ea49ecbee25a9b8f267492a5d296ac09cf6179b43bc334242d052bac5963","timestamp":"0x56bf10c5","totalDifficulty":"0x629a0a89232bcd5b","transactions":[{"blockHash":"0x79851e1adb52a8c5490da2df5d8c060b1cc44a3b6eeaada2e20edba5a8e84523","blockNumber":"0xf3892","condition":null,"creates":null,"from":"0x4bb96091ee9d802ed039c4d1a5f6216f90f81b01","gas":"0x15f90","gasPrice":"0xa","hash":"0xd0fc6b051f16468862c462c672532427efef537ea3737b25b10716949d0e2228","input":"0x","networkId":null,"nonce":"0x7c37","publicKey":"0xa9177f27b99a4ad938359d77e0dca4b64e7ce3722c835d8087d4eecb27c8a54d59e2917e6b31ec12e44b1064d102d35815f9707af9571f15e92d1b6fbcd207e9","r":"0x76933e91718154f18db2e993bc96e82abd9a0fac2bae284875341cbecafa837b","raw":"0xf86a827c370a83015f909404a6c6a293340fc3f2244d097b0cfd84d5317ba58844b1eec616322c1c801ba076933e91718154f18db2e993bc96e82abd9a0fac2bae284875341cbecafa837ba02f165c2c4b5f4b786a95e106c48bccc7e065647af5a1942025b6fbfafeabbbf6","s":"0x2f165c2c4b5f4b786a95e106c48bccc7e065647af5a1942025b6fbfafeabbbf6","standardV":"0x0","to":"0x04a6c6a293340fc3f2244d097b0cfd84d5317ba5","transactionIndex":"0x0","v":"0x1b","value":"0x44b1eec616322c1c"}],"transactionsRoot":"0x7ab22cfcf6db5d1628ac888c25e6bc49aba2faaa200fc880f800f1db1e8bd3cc","uncles":["0x319e0dc9a53711579c4ba88062c927a0045443cca57625903ef471d760506a94","0x0324272e484e509c3c9e9e75ad8b48c7d34556e6b269dd72331033fd5cdc1b2a"]},"id":1}
